:020000040800F2
:10000000C804002005010008231600084315000855
:1000100021160008AD0700081919000800000000AB
:10002000000000000000000000000000271600088B
:10003000AF07000800000000251600082916000878
:100040001F0100081F0100081F0100081F01000810
:100050001F0100081F0100081F0100081F01000800
:100060001F0100081F0100081F0100081F010008F0
:100070001F0100081F0100081F0100081F010008E0
:100080001F0100081F0100081F0100081F010008D0
:100090001F0100081F0100081F0100081F010008C0
:1000A0001F0100081F0100081F0100081F010008B0
:1000B0001F0100081F0100081F0100081F010008A0
:1000C0001F0100081F0100081F0100081F01000890
:1000D0001F0100080D1900081F0100081F0100087A
:1000E0001F0100081F0100081F010008DFF810D0E1
:1000F00000F0CCFA0048004721220008AFF300804E
:10010000C80400200648804706480047FEE7FEE78F
:10011000FEE7FEE7FEE7FEE7FEE7FEE7FEE7FEE7B7
:100120008B160008ED000008202A04DB203A21FA93
:1001300002F00021704721FA02F3D040C2F1200200
:100140009140084319467047D2B201E000F8012BF4
:10015000491EFBD270470022F6E710B513460A4647
:1001600004461946FFF7F0FF204610BD80EA010261
:1001700010B502F00043400022D04A001FD0010E0B
:1001800001EB1261C0F35600C2F3560240F40000C6
:1001900042F40002A0FB022000047F39140400D0C6
:1001A000401C50EA124001D44000491EC2B20C0665
:1001B00004EBD010401C4008802A02D003E000204D
:1001C00010BD20F00100002900DA0020184310BD06
:1001D000420005D0C0F3C7525242914201DC0020D8
:1001E000704700EBC1507047C10F80EAE0700844CF
:1001F000CA079623002100F063B800F0004230F0F7
:1002000000400AD0C10D01F56071C0F3160042EA4A
:100210000151C20840071143704700200146704752
:1002200030B50B46014600202022012409E021FAC6
:1002300002F59D4205D303FA02F5491B04FA02F5C3
:100240002844151EA2F10102F1DC30BD2DE9F05F5A
:100250000546002092469B46884606468146402435
:100260001BE02846414647462246FFF75DFF5346BE
:100270005A46C01A914110D311461846224600F042
:1002800017FA2D1A67EB01084F462246012000217C
:1002900000F00EFA17EB00094E41201EA4F10104F4
:1002A000DFDC484631462A464346BDE8F09F002938
:1002B000A8BF7047401C490008BF20F001007047EC
:1002C00010B4B0FA80FC00FA0CF050EA010404BF4C
:1002D00010BC704749B1CCF1200421FA04F411FAA2
:1002E0000CF118BF012121430843A3EB0C01CB1DE6
:1002F0004FEA00614FEA102042BF002010BC704757
:1003000000EBC35010440029A4BF10BC7047401C30
:10031000490008BF20F0010010BC70472DE9FE4FD6
:10032000804681EA0300C00F0C46009021F0004196
:1003300023F00045B8EB0200A94105D24046214612
:1003400090461C460B46024623F00040104347D01F
:10035000270DC7F30A00C3F30A510290401A019017
:1003600040286BDAC3F3130040F4801B00989246D8
:1003700020B10023D2EB030A63EB0B0B0198594623
:10038000C0F14002504600F093F906460D46504633
:100390005946019A00F09BF910EB080061410024D6
:1003A00087EA115284EAE7731A4340D0009A62B395
:1003B000019A012A4FEA075215DC001B61EB02018A
:1003C0004FF0004202EA0752CDE90042001C41F51D
:1003D000801132462B4600F09BF903B0BDE8F08F48
:1003E00040462146F9E7001B61EB0201001C41F584
:1003F000801300185B412018A2F5001747EB03019A
:1004000040EAD570B6196D4111E06D084FEA360625
:1004100045EAC0754FEA0752001B61EB0201001C60
:1004200041F5801149084FEA300000195141324628
:100430002B4603B0BDE8F04F00F05BB900980122F5
:1004400040000023D0EB020263EBE07300982146EA
:100450004FEAE074B8EB000061EB0401E9E783F0D8
:1004600000435BE781F0004158E72DE9FE4F81EA48
:10047000030404F0004421F0004100944FF0000B0D
:1004800023F0004350EA01045ED052EA03045BD03B
:10049000C3F30A54C1F30A552C44A4F2F334019473
:1004A000A0FB0254C1F3130141F48011C3F3130301
:1004B00043F4801301FB024400FB034E840A970AB5
:1004C00044EA815447EA8357A4FB076802958D0AE2
:1004D00005FB07854FEA932C04FB0C542705029D6E
:1004E0004FEA065847EA1637B5EB08056EEB070CDE
:1004F000870E920E47EA811742EA8312A7FB020198
:10050000B6EB0B0164EB00042B0D43EA0C335E18D1
:1005100044EB1C50DA465146E7FB0201C5F31304D5
:100520004FEA0B3343EA14534FEA0432019C43EA87
:100530000603A4F10C040294009CCDE900B400F081
:10054000E7F803B0BDE8F08F00200146F9E72DE998
:10055000F04D81EA030404F0004B21F000451446FD
:100560004FF0000A23F0004150EA050220D054EA7F
:1005700001021DD0C5F30A570246C5F31303C1F3A8
:100580001300C1F30A5640F4801543F48013A7EB1F
:100590000608101BD64608F2FD3873EB050002D39F
:1005A00008F1010801E092185B41B8F1000F03DA8D
:1005B00000200146BDE8F08D00204FF48011064672
:1005C00084460EE0171B73EB050705D3121B63EB84
:1005D000050306434CEA010C49084FEA3000921823
:1005E0005B4150EA0107EDD152EA030012D082EAE2
:1005F000040083EA0501084305D0101BAB4106D275
:100600000122002306E000224FF0004302E06FF0D9
:10061000010253101AEB06004CEB085110EB0A00D4
:1006200041EB0B01BDE8F04D00F063B8C1F30A5295
:10063000C1F3130140F2FF3341F480119A4202DA10
:1006400000200146704740F233439A42A2F23342FF
:1006500002DC5242FFF768BD00F02AB830B5041E34
:1006600071F1000404DB4FF00044404264EB0101EF
:10067000141E73F1000405DB1C464FF00043524288
:1006800063EB0403994208BF904230BD064C074D0E
:1006900006E0E06840F0010394E807009847103452
:1006A000AC42F6D3FFF726FD80230008A023000804
:1006B000202A04DB203A00FA02F100207047914022
:1006C000C2F1200320FA03F3194390407047202A17
:1006D00006DBCB17203A41FA02F043EAE07306E06A
:1006E00041FA02F3D040C2F120029140084319467A
:1006F000704710B5141E73F1000408DA401C41F174
:10070000000192185B411A4301D120F0010010BD95
:100710002DE9F04D92469B4611B1B1FA81F202E00B
:10072000B0FA80F220329046FFF7C2FF04460F462F
:1007300040EA0A0041EA0B0153465A46084313D0E7
:10074000114653EA010019D0C8F140025046FFF7A4
:10075000EBFC05460E46504659464246FFF7A8FFB9
:10076000084305D0012004E020463946BDE8F08D5D
:100770000020054346EAE0762C4337430A98630598
:10078000E40AA0EB08000022FD0A44EA47540A30BC
:1007900002D500200146E9E7010510196941DDE9AC
:1007A000084500196941BDE8F04DA2E7FEE7704732
:1007B00010B590F821100022022905D00421816390
:1007C00080F82020012010BD01680B6823F00E0383
:1007D0000B6001680B6823F001030B6090F8403058
:1007E000C46B012101FA03F3636080F8211080F8E3
:1007F0002020104610BD000010B590F821100024F4
:10080000022903D00421816301243DE001680A68C4
:1008100022F00E020A6001680A6822F001020A60F2
:100820001A4A0168914201D1012121E0174A14328C
:10083000914201D110211BE0144A2832914201D18A
:10084000891515E0114A3C32914201D189140FE01B
:100850000E4A5032914202D14FF4803108E00B4AE7
:100860006432914202D14FF4801101E04FF0807167
:10087000064A083A5160012180F82110002180F8D1
:100880002010416B01B18847204610BD080002408E
:100890002DE9F84FDFF8B8910024A9F1040B2346A5
:1008A0000F2709F1040AABF1040EC9E00125A540A8
:1008B0002A40AA427DD1674ED1F804C0ACEB0608AD
:1008C000B44532D014DCBCF1030F3AD009DCBCF1E2
:1008D000000F2AD0BCF1010F1CD0BCF1020F31D1A6
:1008E0001DE0BCF1110F17D0BCF1120F2AD119E095
:1008F000B8F5881F19D006DCB8F5803F15D0B8F5DB
:10090000801F1FD111E0B8F5001F0ED0B8F5041FED
:1009100018D10AE0CB6815E0CB681B1D12E0CB684C
:1009200008330FE0CB680C330CE08B682BB1012B44
:100930004FF0080303D0456104E0042302E00561A1
:1009400000E00023FF2A01D8064601E000F104067A
:100950004FEA840501D9A5F12005D6F8008007FAF1
:1009600005FC28EA0C0803FA05F548EA0508C6F86C
:1009700000804D68ED0062D5374DAE6946F0010646
:10098000AE61AD6924F0030605F001050095334D15
:1009900006EB050CDCF80850A607360F07FA06F838
:1009A00025EA0805DFF8B880404503D14FF000087C
:1009B00017E044E0DFF8AC80404502D14FF0010879
:1009C0000FE0DFF8A480404502D14FF0020808E0B4
:1009D000DFF89880404502D14FF0030801E04FF066
:1009E000040808FA06F848EA0508CCF808804D68BB
:1009F000D9F80060ED024D4601D5164300E096435C
:100A00002E604D68DAF80060AD02554601D51643F8
:100A100000E096432E604D68DBF80060AD035D4654
:100A200001D5164300E096432E604D68DEF8006065
:100A3000ED03754601D5164300E096432E60641C15
:100A40000D682A46E5407FF431AFBDE8F88F00001D
:100A50000804014000001110001002400000014095
:100A600000080140000C014000100140001401404A
:100A7000014880687047000000000020024881683B
:100A8000027811448160704700000020074810B5CB
:100A9000016841F010010160032000F079F80F2097
:100AA00000F006F800F024F8002010BD00200240FD
:100AB00070B50D4D04464FF47A712878B1FBF0F013
:100AC0000A490968B1FBF0F000F0E0FA48B9102CCF
:100AD00007D200222146501E00F03AF800206C6038
:100AE00070BD012070BD0000000000200C0000203F
:100AF0000E4808B5816941F001018161816901F009
:100B000001010091C16941F08051C161C06900F0EB
:100B100080500090052000F03BF80548416821F026
:100B2000E06141F00071416008BD0000001002402A
:100B300000000140002809DB00F01F020121914064
:100B40004009800000F1E020C0F80011704700006B
:100B5000F0B40E4B1B680C46C3F30223C3F1070528
:100B6000042D00D90425191D072901D2002300E016
:100B7000DB1E012606FA05F1491E214099409E40E0
:100B8000761E16403143F0BC00F0D8BE0CED00E0FC
:100B9000064900F0070208684FF6FF03184040EAD4
:100BA0000220034A10430860704700000CED00E08B
:100BB0000000FA052DE9F0470F46050061D0434ECD
:100BC000306800F00700B84209D2306820F0070012
:100BD00038433060306800F00700B84251D12868CF
:100BE0003B4C810712D5400703D5606840F4E060B4
:100BF00060602878000703D5606840F4605060604A
:100C00006068A96820F0F000084360602878C00799
:100C100028D06868012810D02168022810D08907E0
:100C200000292EDA616821F0030101436160FFF7BA
:100C30001FFF804641F288390DE021688903EFE704
:100C40008901EDE7FFF714FFA0EB0801494502D940
:100C50000320BDE8F0876068696800F00C00B0EB25
:100C6000810FEFD1306800F00700B8420BD930682F
:100C700020F0070038433060306800F00700B842C9
:100C800001D00120E5E72878400705D56068E968CC
:100C900020F4E060084360602878000706D56068AB
:100CA000296920F4605040EAC100606000F038F823
:100CB0006168084AC1F30311515CC84006490860E5
:100CC00006480068FFF7F4FE0020C2E7002002405B
:100CD00000100240662300080C00002004000020E1
:100CE0000448054900684968044AC1F30221515C7F
:100CF000C84070470C000020001002407623000816
:100D00000448054900684968044AC1F3C221515C9E
:100D1000C84070470C0000200010024076230008F5
:100D20000E4A51680E4801F00C03042B11D0082B19
:100D30000FD10C48C1F38343C903C05C0AD5516885
:100D4000084AC1F34041921E515C054A5043B0FB32
:100D5000F1F070470449484370470000001002401A
:100D600000127A005623000800093D002DE9F84FD3
:100D7000040070D02078C04DC00749D06868C0F327
:100D80008100012807D06868C0F38100022809D1DA
:100D90006868C00306D52868800339D560680028D4
:100DA000E7D035E06068B0F5803F0BD010B1B0F50A
:100DB000A02F11D0286820F480302860286820F403
:100DC000802002E0286840F480302860606890B19C
:100DD000FFF74EFE06460AE0286840F480202860AF
:100DE000F0E700BFFFF744FE801B642873D8286833
:100DF0008003F7D50CE0FFF73BFE064605E000BF99
:100E0000FFF736FE801B6428F0D828688003F7D4EB
:100E100020789A4E80074FF001094FF0000839D52D
:100E2000686810F00C0F07D06868C0F381000228D2
:100E300009D16868C00306D42868800714D52069E2
:100E4000012808D110E02069B0B1C6F80090FFF782
:100E50000FFE074605E00AE1FFF70AFEC01B022865
:100E6000C4D828688007F7D52868616920F0F800A1
:100E700040EAC10028600DE0C6F80080FFF7F8FDE9
:100E8000074604E0FFF7F4FDC01B022823D82868BA
:100E90008007F7D4207800072CD57948A169D9B10B
:100EA000C0F80090FFF7E4FD074604E0FFF7E0FD1F
:100EB000C01B02280FD8686A8007F7D571484FF425
:100EC000FA510068B0FBF1F0009000BF0098411E9D
:100ED0000091FAD20EE080E0C0F80080FFF7C8FD74
:100EE000074604E0FFF7C4FDC01B022875D8686AF6
:100EF0008007F7D42078400760D5E8690027C00054
:100F000008D4E86940F08050E861E869012700F002
:100F1000805000905C480168C90513D4016883467D
:100F200041F480710160FFF7A3FD824606E000BF37
:100F3000FFF79EFDA0EB0A0064284ED8DBF8000006
:100F4000C005F5D5E06801280AD008B1052813D0FE
:100F5000286A20F001002862286A20F0040002E0DC
:100F6000286A40F001002862E06841F2883B98B1AD
:100F7000FFF77EFD82460BE0286A40F004002862FD
:100F8000EEE700BFFFF774FDA0EB0A0159455AD800
:100F9000286A8007F6D50CE0FFF76AFD824605E077
:100FA000FFF766FDA0EB0A0159454CD8286A800777
:100FB000F6D41FB1E86920F08050E861E06988B399
:100FC0006968C1F38101022944D00228C6F8608013
:100FD00004D0FFF74DFD044638E034E0FFF748FD4C
:100FE000074604E0FFF744FDC01B02282BD8286801
:100FF0008001F7D4206AB0F5803F05D16868A16808
:1010000020F4003008436860D4E9080108436968A7
:1010100021F4741108436860C6F86090FFF728FD5A
:10102000044606E025E000BFFFF722FD001B022872
:1010300009D828688001F7D51BE000BFFFF718FD2D
:10104000001B022802D90320BDE8F88F2868800120
:10105000F4D40EE00128F7D06868226A00F48031E9
:10106000914204D1616A00F47010884201D00120DD
:10107000EAE70020E8E700000010024000004242DA
:10108000800442420C0000200070004010B5401E59
:10109000B0F1807F01D3012010BD4FF0E0246061EA
:1010A0000F21601700F04AFC0020A061072020619A
:1010B000002010BD70477047F8B501680446086805
:1010C000CA684B6910F00F0F4FF0000559D003F0BC
:1010D000010602F49077374365D0C10705D0D105EA
:1010E00003D5616C41F001016164410705D5D90761
:1010F00003D0616C41F002016164810705D5D90715
:1011000003D0616C41F004016164010707D502F06E
:101110002001314303D0616C41F008016164616CCE
:1011200000293AD0800604D5900602D5204600F06A
:10113000DCFA20684069616CC0F38010090700D4B4
:1011400060B3204600F0AAFA20684069400621D525
:101150002068143050E8001F21F0400140E80012E0
:10116000002AF5D1E06BA8B16D494163E06BFFF750
:1011700043FB002811D0E06B416B01B0BDE8F040AB
:10118000084783060FD593060DD52046BDE8F840E5
:1011900000F0ABBA2046FFF78EFFF8BD2046FFF700
:1011A0008AFF6564F8BD266B2023012E7CD1C6061C
:1011B0007AD5D60678D508684868009048694FF017
:1011C0000206400640D5E16B086840680004000C48
:1011D000E8D0A28D8242E5D9E085886920282DD00B
:1011E00020680C3050E8001F21F4807140E80012A4
:1011F000002AF5D12068143050E8001F21F00101C9
:1012000040E80012002AF5D12068143050E8001F91
:1012100021F0400140E80012002AF5D184F8423064
:10122000256320680C3050E8001F21F0100140E8D1
:101230000012002AF5D1E06BFFF7BAFA6663A08DC1
:10124000E18D401A81B22AE0A08DE18D401A81B271
:10125000E08D0028A6D00029A4D022680C3252E8E4
:10126000000F20F4907042E80007002FF5D12068AD
:10127000143050E8002F22F0010240E80027002F30
:10128000F5D184F84230256320680C3050E8002FF7
:1012900022F0100240E80023002BF5D166632046BF
:1012A000FFF708FFF8BDFFE705062BD5150629D582
:1012B00094F841002128F5D1A068B0F5805F01D1F4
:1012C0002069B0B1206A411C216221680078486021
:1012D000E08C401E0004000CE084E3D12068C1686B
:1012E00021F08001C1602068C16841F04001C16007
:1012F000D8E7206A0088C0F308004860206A801C94
:101300002062E5E74006CDD55006CBD5CA68204619
:1013100022F04002CA6084F8413000F011F9C1E7C0
:101320008D16000870B5040004D094F84100002523
:1013300010B106E0012070BD84F84050204600F056
:1013400023F8242084F841002068C16821F400516A
:10135000C160204600F02AFA2068016921F490411A
:1013600001612068416921F02A0141612068C1685A
:1013700041F40051C1606564202084F8410084F884
:1013800042006563002070BD70B586B000240094F3
:101390000194029403942B4E03682B4902200322EC
:1013A0002A4DB34229D18B6943F480438B618B6909
:1013B00003F4804304938B6943F004038B618969D0
:1013C000039201F0040104910102CDE90010694685
:1013D0002846FFF75DFA2815CDE90004694628463E
:1013E0000294FFF755FA002211462520FFF7B0FBC3
:1013F0002520FFF79FFB06B070BD154EB342FAD112
:10140000CB6943F40033CB61CB6903F4003304931D
:101410008B6943F004038B618969039201F0040135
:1014200004910421CDE9001069462846FFF730FAFF
:101430000820CDE90004694628460294FFF728FAFF
:10144000D9E70000003801400010024000080140C8
:101450000044004090F84230202B01D00220704719
:1014600021B11AB10023036300F0FCB901207047D9
:1014700010B50068074988420AD10748007800F093
:1014800061F8BDE81040012203490448FFF7E2BFBC
:1014900010BD00000038014010000020180000209E
:1014A0002DE9F843044690F84100984616460D464B
:1014B000202802D00220BDE8F88385B17EB100204B
:1014C0006064212084F84100FFF7D2FAA6848146A7
:1014D000E684A0682027B0F5805F02D003E00120F9
:1014E000E9E7206910B12E4600250EE000260CE049
:1014F0008021204600F0D1F9A8B9C6B116F8010B39
:1015000021684860E08C401EE084E08C4B464FF040
:101510000002CDF800800028EAD14FF040012046BB
:1015200000F0BBF940B184F841700320C3E735F8FF
:10153000020BC0F30800E3E784F841700020BAE72B
:101540007047FEE72DE9F05F324A334901245378B2
:10155000EBB34FF00009012B4DD0022B43D1904645
:1015600012788854521CD0B288F800000B283AD365
:10157000002210460B5C401C1A44D2B20A28F9DB48
:10158000887A90422BD1B1F90200B1F90460B1F927
:101590000670FEF729FE6FF00E0A5146FEF718FEA0
:1015A000DFF878B05946FEF7E1FD1B4D103D28608D
:1015B0003046FEF719FE5146FEF70AFE5946FEF781
:1015C000D5FD68603846FEF70FFE514600E00CE09E
:1015D000FEF7FEFD5946FEF7C9FDA8602C7388F89A
:1015E000019088F80090BDE8F09F5528FBD1087065
:1015F00014705470F7E7532804D0552807D082F8A8
:101600000190F0E74870022010705070EBE708700E
:101610001470E8E711000020B800002000003443F7
:10162000FEE7FEE770477047FFF728BA30B58FB086
:1016300028216846FEF78FFD14210AA8FEF78BFDCE
:1016400001210804CDE90010002402940225049130
:10165000CDE907504FF4E01009906846FFF786FB8C
:1016600008B172B6FEE70F20CDE90A054FF480609D
:10167000CDE90C4002210AA80E94FFF79BFA00283E
:1016800001D072B6FEE70FB030BD704710B5406AAA
:101690000021C185C184FFF70EFD10BD01680C312A
:1016A00051E8002F22F4907241E80023002BF5D17D
:1016B0000168143151E8002F22F0010241E80023B3
:1016C000002BF5D1016B012909D101680C3151E8DA
:1016D000002F22F0100241E80023002BF5D1202139
:1016E00080F8421000210163704708B590F842105D
:1016F000222901D0022008BD82684FF480539A420B
:1017000001D1016921B1816A9A421BD04AB10AE034
:101710000268816A5268C2F308020A80816A891CE1
:1017200008E0026972B10268526802F07F020A7032
:10173000816A491C8162C18D491E0904090CC18559
:1017400003D01BE002685268F1E70168CA6822F022
:101750002002CA600168CA6822F48072CA60016807
:101760004A6922F001024A61202180F842100021DA
:101770004163026B012A03D0FFF77AFE002008BD07
:10178000016301680C3151E8002F22F0100241E89A
:101790000023002BF5D101680A68D20602D50A6839
:1017A00049680091818DFFF785FCE7E770B5044635
:1017B00000680169E26821F4405111430161216927
:1017C000A0680843616908432168CA6841F20C6354
:1017D0009A430243CA6020684169A26921F44071BA
:1017E000114341611E492068884202D1FFF788FAFF
:1017F00001E0FFF775FA00EBC00101EB0012606831
:1018000064218000B2FBF0F3B3FBF1F36FF0180634
:101810007343B2FBF0F5B2FBF0F605EB8305322320
:1018200003EB0515B5FBF1F5B6FBF1F605F0F00598
:1018300005EB0615B2FBF0F6B2FBF0F0B0FBF1F0F1
:101840006FF01802504306EB800003EB0010B0FB72
:10185000F1F0216800F00F002844886070BD00009E
:101860000038014081628285C285002141642221C5
:1018700080F84210016921B10168CA6842F480729F
:10188000CA6001684A6942F001024A610068C168A1
:1018900041F02001C160002070472DE9F8439846CF
:1018A00017460D460446089E24E0701C22D0FFF720
:1018B000DFF8A0EB0800B0421AD8CEB12068C168AA
:1018C000490717D5802D15D0402D13D00168C94385
:1018D00009070FD401680025406800902046FFF7F3
:1018E000DDFE0820606484F840500120BDE8F883E4
:1018F0000320FBE72068006835EA000004D00020E0
:10190000B842D2D00020F1E70120F9E70148FFF703
:10191000D3BB000018000020FEE700000FB4054B09
:1019200010B503A9044A029800F0EAF810BC5DF86B
:1019300014FB000009220008140000200907090E0A
:10194000002804DB00F1E02080F80014704700F06C
:101950000F0000F1E02080F8141D704702E008C875
:10196000121F08C1002AFAD170477047002001E019
:1019700001C1121F002AFBD1704700002DE9FF5F53
:1019800082B00021DDE90430020DDDF840B00343F0
:1019900018D044F61050A2F2FF32424315141198A9
:1019A00001281FD0A5EB0B00401C5FEA000A4FF096
:1019B00000064E4FDFF83891B046504615D5CAF1B3
:1019C000000413E0119801244AA3012801D16FEA11
:1019D0000B010298119AC0E90031C0E9024206B039
:1019E000BDE8F09FCBF10000DFE704460021404A4C
:1019F000491842EB0450CDE9001012E0E00707D08F
:101A000032463B4640464946FEF72FFD8046894612
:101A100032463B4610461946FEF727FD06460F465E
:101A20006410002CEAD1DDE90401DDE90023BAF1FC
:101A3000000F06DAFEF719FD42464B46FEF715FD8C
:101A400005E0FEF784FD42464B46FEF780FD044666
:101A50000E460022284BFEF701FE03D84FF0FF3060
:101A6000014607E00022254B20463146FEF756FC92
:101A7000FEF7DCFD102409E0002C0ADB0A2200231B
:101A8000FEF7E4FB039B30321A55641E50EA010254
:101A9000F2D1641C039AC4F111031444119A012A6F
:101AA00003D0012208430DD10AE0084304D00020EE
:101AB0004FF0110B119072E7A3EB0B056D1E0DE0BB
:101AC0005B4504DD4FF0000205F1010504E003DA97
:101AD0004FF00002A5F10105002AECD002981199FF
:101AE000C0E90231C0E9004579E700000000144078
:101AF0000000F03F300000000000F0430000E03F35
:101B00002DE9FF4F95B09A46884606460025EEE13E
:101B1000252877D100242746F94A0121039400E0C3
:101B2000044316F8013F203B01FA03F01042F7D1BD
:101B300030782A2811D06FF02F033078A0F13002CE
:101B4000092A16D8039A44F0020402EB820203EB3E
:101B500042021044761C0390EFE758F8042B0392DE
:101B6000002A03DA504244F40054039044F0020483
:101B7000761C30782E2816D116F8010F44F0040494
:101B80002A280DD06FF02F023078A0F13003092BF6
:101B900009D807EB870302EB4303C718761CF3E76A
:101BA00058F8047B761C30786C280FD006DC4C2863
:101BB00017D068280DD06A2814D104E0742810D0FA
:101BC0007A280FD10DE044F400140AE044F48014A4
:101BD00001E044F440147278824202D104F580148A
:101BE000761C761C307866280BD013DC582877D00A
:101BF00009DC002875D04528F6D04628F4D04728BF
:101C00001AD193E118E0632835D0642879D065288B
:101C100012D18BE1702873D008DC6728F1D06928D5
:101C20006FD06E280DD06F2806D1ACE073282CD071
:101C3000752874D0782853D05246179990476D1C58
:101C400054E1C4F30250022809D003280DD0D8F87B
:101C5000001004280DD00D6008F1040846E1D8F802
:101C60000010EA17C1E90052F6E7D8F800100D801D
:101C7000F2E70D70F0E718F8041B8DF80010002053
:101C80008DF80100EB46012003E058F804BB4FF04B
:101C9000FF3061074FF0000102D40DE009F10101AE
:101CA0008946B9420FDA8145F8DB1BF80910002993
:101CB000F4D108E009F1010189468142FADB1BF801
:101CC00009100029F6D103985346A0EB09072146D5
:101CD0003846179A00F080FA284400EB090507E01F
:101CE00044E008E10DE01BF8010B524617999047BC
:101CF000B9F10109F7D2534621463846179AF2E066
:101D000039E00A21C4F302524FF0000B0091022A7D
:101D100006D058F8040BC117032A09D00AE023E0C3
:101D200008F1070020F00702F2E80201904605E002
:101D300000B2C117042A01D140B2C117002906DA46
:101D40000A460021404261EB02012D2202E02205F9
:101D500004D52B228DF80420012203E0E20701D0F4
:101D60002022F7E7914657E00A2100E010214FF0CA
:101D7000000B00910BE010214FF0000B44F0040425
:101D80000827009103E008204FF0000B0090C4F3F7
:101D90000252022A05D058F8040B0021032A08D069
:101DA00008E008F1070020F00702F2E8020190467F
:101DB00003E080B2042A00D1C0B24FF0000922072C
:101DC0002AD53278702A07D0DDF800C08CF0100CCC
:101DD0005CEA0B0C05D00EE040228DF804200122B5
:101DE00008E050EA010306D030238DF804308DF866
:101DF000052002229146009B83F0080353EA0B035F
:101E00000AD150EA010201D1620705D530228DF8CE
:101E100004204FF001097F1E3278582A04D039A2DD
:101E20000C920CAA02920BE03BA2F9E75B46009AE7
:101E3000FEF70CFA0C9B9B5C029A521E02921370E6
:101E400050EA0102F2D1029804A9081A00F1200B0D
:101E5000600702D524F4803400E001275F4502DDED
:101E6000A7EB0B0000E0002000EB0B0100900398B3
:101E70004944401A0390E00306D453462146179A7A
:101E8000039800F0A9F90544002706E001A852468E
:101E9000C05D179990476D1C7F1C4F45F6DBE00332
:101EA0000CD553462146179A039800F095F905443E
:101EB00004E030205246179990476D1C0099481E47
:101EC00000900029F5DC08E002980299524600785B
:101ED000491C0291179990476D1CBBF10001ABF1B1
:101EE000010BF1DC5BE100F065F90544761C30780C
:101EF00000287FF40DAE19B02846BDE8F08F000031
:101F000009280100303132333435363738396162CF
:101F10006364656600000000303132333435363793
:101F2000383941424344454600000000600700D470
:101F3000062708F1070020F00700F0E8022380469A
:101F400003F0004C5FEA0C0001D097A009E02005E7
:101F500001D596A005E0E00701D095A001E0AFF221
:101F60004C001390307823F0004365280CD006DC39
:101F7000452809D046281DD047287FD13BE0662858
:101F800018D067287AD136E00021112F01DB11200B
:101F900000E0781CCDE9000104A90CA8FFF7EEFCD5
:101FA000DDE90D010C9A4FF0000B07F101091092C9
:101FB00000914EE04FF000400097CDE9011004A9D8
:101FC0000CA8FFF7DBFCDDE90D020C9B0F994FF02D
:101FD000000B91461093009211B9791C00EB010996
:101FE000B7EB090003D4C0F1FF3B07F10109A9EBEE
:101FF0000700019042E0012F00DA01270021112F94
:1020000001DD112000E03846CDE9000104A90CA84B
:10201000FFF7B4FCDDE90D010C9A00914FF0000BC5
:10202000B946109221070FD4009A4A4503DA914627
:1020300001E0A9F10109B9F1010F05DD109AA9F13B
:102040000101515C3029F4D0B84202DA10F1040FDA
:1020500003DA0121CDE9011010E0002803DC8344FC
:10206000A9EB000102E0411C494500DD8946A0EBD7
:102070000B00401C01904FF000400290200705D457
:102080000198484502DB4FF0FF30019000208DF8A9
:102090004B0002980DF14B07B0F1004F25D0022004
:1020A0000C902B200D90029800280CDA40420290F0
:1020B0002D200D9007E00A210298FEF7B1F830318B
:1020C000029007F8011D0C99481E0C900029F2DCC3
:1020D00002980028EFD1791E0D980870307800F032
:1020E000200040F0450007F8020D11A8C01BC01DDC
:1020F00002901398007800B1012000EB09010198CB
:1021000001EBE071029801440398401A401E0390CD
:10211000E00306D453462146179A039800F05CF872
:1021200005441398007818B15246179990476D1CD2
:10213000E00323D553462146179A039800F04CF844
:1021400005441BE0BBF1000F07DB0098584504DD98
:102150001098179910F80B0001E01799302052469B
:10216000904701980BF1010B401E05F1010501900C
:1021700004D12E205246179990476D1CB9F10001E9
:10218000A9F10109DEDC05E017F8010B52461799A9
:1021900090476D1C0299481E02900029F4DC5346BA
:1021A0002146179A03989EE62D0000002B000000A0
:1021B000200000002DE9F041044600251E46174688
:1021C000880404D405E039462020B0476D1C641E05
:1021D000F9D52846BDE8F0812DE9F04104460025F7
:1021E0001E469046C80301D5302700E0202788040A
:1021F00004D505E041463846B0476D1C641EF9D54C
:102200002846BDE8F081000013B54FF0FF330122EE
:1022100069460248FFF744F900981CBD60000020A1
:102220001FB5FEF733FCFFF701FA3148816941F031
:1022300010018161816901F010010091816941F013
:1022400020018161816901F020010091816941F0E3
:10225000040181618069274900F00400009026484C
:1022600000240C2501604FF41651C0E90114C4602C
:10227000C0E904458461C461FFF754F808B172B63F
:10228000FEE71D481D494830A14601604FF4E13189
:10229000C0E90114C460C0E904458461C461FFF76A
:1022A00041F808B172B6FEE7012215491248FFF75E
:1022B000D1F814A0FFF732FB1B4C207B0128FCD186
:1022C00084F80C90A068FDF798FF07468846606880
:1022D000FDF793FF05460E462068FDF78EFF8DE85B
:1022E000E00102460B4611A0FFF718FBE5E70000EE
:1022F0000010024000380140180000200044004057
:1023000010000020E7B3BBE7BB9FE590AFE58AA8CC
:10231000204A593631502028555341525431292EE4
:102320002E2E0D0A00000000A8000020526F6C6CD9
:102330003A20252E3266207C2050697463683A204A
:10234000252E3266207C205961773A20252E326670
:102350000D0A0000010202030405060708090A0B22
:102360000C0D0E0F10100000000000000000010214
:10237000030406070809000000000102030400002E
:10238000A023000800000020180000005C190008CD
:10239000B823000818000020B00400006C190008E1
:1023A00001000000100000000000000000127A0090
:0823B000000000000000000025
:04000005080000ED02
:00000001FF
